:020000042000DA
:1000000008040120C1010020C9010020CB0100200B
:10001000CD010020CF010020D10100200000000010
:10002000000000000000000000000000D3010020DC
:10003000D501002000000000D7010020651000203D
:10004000DB010020DB010020DB010020DB010020C0
:10005000DB010020DB010020DB010020DB010020B0
:10006000DB010020DB010020DB010020DB010020A0
:10007000DB010020DB010020DB010020DB01002090
:10008000DB010020DB010020DB010020DB01002080
:10009000DB010020DB010020DB010020DB01002070
:1000A000DB010020DB010020DB010020DB01002060
:1000B000DB010020DB010020DB010020DB01002050
:1000C000DB010020DB010020DB010020DB01002040
:1000D000DB010020DB010020DB010020DB01002030
:1000E000DB010020DB010020DB010020DB01002020
:1000F000DB010020DB010020DB010020DB01002010
:10010000DB010020DB010020DB010020DB010020FF
:10011000DB010020DB010020DB010020DB010020EF
:10012000DB010020DB010020DB010020DB010020DF
:10013000DB010020DB010020DB010020DB010020CF
:10014000DB010020DB010020DB010020DB010020BF
:10015000DB010020DB010020DB010020DB010020AF
:10016000DB010020DB010020DB010020DB0100209F
:10017000DB010020DB010020DB010020000000008B
:10018000DB010020DB010020DB010020DB0100207F
:10019000DB010020DB010020DB010020DB0100206F
:1001A000DB010020DB010020DB010020DFF80CD0A8
:1001B00000F018F8004800478513002008040120CB
:1001C0000648804706480047FEE7FEE7FEE7FEE7F1
:1001D000FEE7FEE7FEE7FEE7FEE7FEE70911002087
:1001E000AD010020064C074D06E0E06840F0010339
:1001F00094E8070098471034AC42F6D3FFF7DAFFD3
:10020000F01300201014002031B500F027F9044647
:1002100000F024F90099001B8842F9D338BD000092
:100220002DE9F84F0022DFF80492DFF8FC814FF04F
:10023000010E0F2709F1040A0EFA02F50B682B4094
:10024000AB427CD1D1F804C0BCF1020F02D0BCF1AA
:10025000120F14D14FEAD20C00EB8C04266A4FEA3D
:10026000427C4FEADC6C07FA0CFB26EA0B06D1F85D
:1002700010B00BFA0CFC4CEA060CC4F820C006685F
:100280004FEA420C032404FA0CF4A64391F804B09C
:100290000BF0030B0BFA0CFB4BEA060606604E68EC
:1002A000012E05D0022E03D0112E01D0122E11D115
:1002B0008668A643D1F80CB00BFA0CFB4BEA060695
:1002C0008660466826EA05050E79C6F30016964054
:1002D00035434560C56825EA04048D6805FA0CFCC1
:1002E0004CEA040CC0F80CC0D1F804C01CF0805FCC
:1002F00075D0D8F800C04CF4804CC8F800C0D8F8CD
:1003000000C00CF4804CCDF800C022F0030C0CF1BE
:10031000804505F59835D5F808C89407240F07FAE5
:1003200004F62CEA0606A0F1804CBCF5003C5CD03B
:10033000BCF5806C5CD0BCF5806C5CD000E04EE01D
:10034000BCF5806C5AD0BCF5806C5AD0BCF5806C82
:100350005AD0BCF5806C5AD0BCF5806C5AD0BCF534
:10036000806C5AD0BCF5806C5AD04FF00A0C0CFA55
:1003700004FC4CEA060CC5F808C8D9F800C02CEA01
:10038000030C4C6814F4803F01D04CEA030CC9F80C
:1003900000C0DAF800C02CEA030C4C6814F4003FEB
:1003A00001D04CEA030CCAF800C0214CD4F800C0BC
:1003B0002CEA030C4D6815F4801F01D04CEA030CA5
:1003C000C4F800C01B4CD4F800C02CEA030C4D68E4
:1003D00015F4001F01D04CEA030CC4F800C0521CF5
:1003E000102AFFF429AFBDE8F88F4FF0000CBEE7EC
:1003F0004FF0010CBBE74FF0020CB8E74FF0030CD5
:10040000B5E74FF0040CB2E74FF0050CAFE74FF043
:10041000060CACE74FF0070CA9E74FF0080CA6E775
:100420004FF0090CA3E7000044380240003C0140B3
:10043000083C01400C3C01400069084201D0012009
:100440007047002070474269514041617047002A5F
:1004500001D08161704709048161704701480068DB
:10046000704700000400012002480168491C016037
:10047000704700000400012010B50B48016841F4EA
:1004800000710160016841F480610160016841F41C
:1004900080710160032000F059F8002000F006F898
:1004A00000F015F8002010BD003C024010B50446D5
:1004B00000F09EF94FF47A72B0FBF2F000F020FCED
:1004C00000222146501E00F00DF8002010BD10B58E
:1004D000072000F03BF80022BDE810401146501EF6
:1004E000AFF3008010B4184B1B68C3F30223C3F1B1
:1004F000070CBCF1040F01D94FF0040C1C1D072C94
:1005000001D2002300E0DB1E012404FA0CFCACF154
:10051000010C0CEA0101994004FA03F35B1E1A4036
:100520001143002808DA00F00F0000F1E020090173
:1005300080F8141D10BC704700F1E020090180F81C
:10054000001410BC704700000CED00E000F0070044
:10055000064A11684FF6FF03194041EA002040F0B7
:10056000FD7040F080601060704700000CED00E00E
:100570002DE9F04704460E46DFF868A2DAF80000DD
:10058000994900F00F00994F06F0FF0941F28838B1
:10059000B04270D28AF80090DAF8000000F00F0044
:1005A000B04202D00120BDE8F087207810F0020FA1
:1005B00005D03868A26820F0F00010433860207839
:1005C00010F0010F49D06068012808D002280DD032
:1005D00003280BD0096811F0020F29D00AE009683E
:1005E00011F4003F06D10120BDE8F087096811F041
:1005F000007F1AD0396821F0030108433860FFF703
:100600002DFF05466068012815D0022826D0032852
:100610003BD0386810F00C0F1FD0FFF71FFF401BB6
:10062000404539D90320BDE8F0870120BDE8F087B7
:100630000120BDE8F087386800F00C0004280CD0D9
:10064000FFF70CFF401B404502D90320BDE8F087AF
:10065000386800F00C000428F2D1A8E0386800F0F7
:100660000C00082870D0FFF7F9FE401B404503D965
:100670000320BDE8F08714E0386800F00C0008287B
:10068000F1D194E00320BDE8F0873868FFF7E6FE7B
:10069000401B4045F9D9F5E7386810F00C0FBCD184
:1006A00085E0207810F0020F05D03868A26820F0AD
:1006B000F00010433860207810F0010F6CD06068B3
:1006C000012808D002280DD003280BD0096811F0AA
:1006D000020F29D00AE0096811F4003F06D1012079
:1006E000BDE8F087096811F0007F1AD0396821F061
:1006F000030108433860FFF7B1FE05466068012832
:1007000015D0022827D003283BD0386810F00C0FF2
:1007100042D0FFF7A3FE401B404539D90320BDE876
:10072000F0870120BDE8F0870120BDE8F087386838
:1007300000F00C0004282FD0FFF790FE401B40452E
:1007400003D90320BDE8F08731E0386800F00C00E1
:100750000428F1D120E0386800F00C0008281BD0F4
:10076000FFF77CFE401B404502D90320BDE8F0871F
:10077000386800F00C000828F2D10DE00320BDE835
:10078000F0873868FFF76AFE401B4045F9D9F5E766
:10079000386810F00C0FBCD18AF80090DAF800002D
:1007A00000F00F00B04202D00120BDE8F0872078B1
:1007B00010F0040F05D03868E16820F4E0500843D9
:1007C0003860207810F0080F06D03868216920F4CE
:1007D000604040EAC10038600020FFF767FE00205B
:1007E000BDE8F087003C0240003802400838024073
:1007F00010B500F017F808490968F02292FAA2F241
:1008000001F0F001B2FA82F2D140044A515CC840D2
:100810000349086010BD000008380240E0130020C2
:100820000000012010B41F48006810F00C011E48A1
:100830001BD04FEA600C042916D0082915D11B4A99
:10084000116801F03F01136813F4800F47F6C0737D
:100850000DD0BCFBF1F01168194093FAA3F3B3FA81
:1008600083F3D94048430CE0604610BC7047B0FBAE
:10087000F1F01168194093FAA3F3B3FA83F3D94066
:10088000484311684FF4403292FAA2F201F4403129
:10089000B2FA82F2D140491C4900B0FBF1F010BC21
:1008A00070470000083802400024F4000438024079
:1008B0002DE9F84F0446DFF8E8B32078F94D10F041
:1008C000010F4FF0000741F2883660D0DBF80000DE
:1008D00000F00C0004280AD0DBF8000000F00C0047
:1008E00008280DD1281D006810F4800F08D0286852
:1008F00010F4003F4BD0606878BB0120BDE8F88F52
:10090000DFF8A49389F80070FFF7A8FD80462868F7
:1009100010F4003F0CD0FFF7A1FDA0EB0800B0429F
:1009200002D90320BDE8F88F286810F4003FF2D107
:10093000207989F800006068A8B1FFF78FFD804634
:10094000286810F4003F22D1FFF788FDA0EB0800D3
:10095000B04203D90320BDE8F88F18E0286810F4EE
:10096000003FF1D013E0FFF779FD8046286810F4CE
:10097000003F0CD0FFF772FDA0EB0800B04202D997
:100980000320BDE8F88F286810F4003FF2D12078EA
:10099000DFF8188310F0020F64D0DBF800004FF08E
:1009A000F80A10F00C0F17D0DBF8000000F00C0074
:1009B000082804D1BE48006810F4800F0CD0E0680D
:1009C000C8B30120C8F80000FFF748FD8146286839
:1009D00010F0020F16D022E0286810F0020F05D0A8
:1009E000E068012802D00120BDE8F88F28689AFA53
:1009F000AAF22169B2FA82F220F0F800914008438D
:100A000028602FE0FFF72AFDA0EB0900642802D937
:100A10000320BDE8F88F286810F0020FF2D0286894
:100A20009AFAAAF22169B2FA82F220F0F800914013
:100A30000843286016E0FFE7C8F80070FFF70EFDD6
:100A40008146286810F0020F0CD0FFF707FDA0EBDD
:100A50000900642802D90320BDE8F88F286810F047
:100A6000020FF2D1207810F0080F34D09148DFF84F
:100A700048A26169C1B101210160FFF7EFFC814625
:100A8000DAF8000010F0020F25D1FFF7E7FCA0EB29
:100A90000900642802D90320BDE8F88FDAF80000C5
:100AA00010F0020FF1D016E00760FFF7D7FC814687
:100AB000DAF8000010F0020F0DD0FFF7CFFCA0EB2A
:100AC0000900642802D90320BDE8F88FDAF8000095
:100AD00010F0020FF1D1207810F0040F72D0774897
:100AE000016841F080510160006800F08050009082
:100AF000DFF8CCA1DAF8000040F48070CAF80000FA
:100B0000FFF7ACFC8146DAF8000010F4807F0DD1CD
:100B1000FFF7A4FCA0EB0900642802D90320BDE87C
:100B2000F88FDAF8000010F4807FF1D0DFF894A19C
:100B30008AF80070FFF792FC8146DAF8000010F0A6
:100B4000020F0DD0FFF78AFCA0EB0900B04202D9DA
:100B50000320BDE8F88FDAF8000010F0020FF1D1A1
:100B6000207A8AF80000A068B0B1FFF777FC8146D0
:100B7000DAF8000010F0020F24D1FFF76FFCA0EBB1
:100B80000900B04202D90320BDE8F88FDAF800006E
:100B900010F0020FF1D015E0FFF760FC8146DAF8A3
:100BA000000010F0020F0DD0FFF758FCA0EB090079
:100BB000B04202D90320BDE8F88FDAF8000010F047
:100BC000020FF1D1A069E8B3DBF8001001F00C01CD
:100BD000082979D0022810D0C8F86070FFF73EFCD1
:100BE0000446286810F0007F74D0FFF737FC001B24
:100BF00064286BD90320BDE8F88FC8F86070FFF750
:100C00002DFC0646286810F0007F0BD0FFF726FC6D
:100C1000801B642802D90320BDE8F88F286810F0F3
:100C2000007FF3D1216AE069626A014347F6C07030
:100C300090FAA0F0B0FA80F002FA00F04FF0FF3323
:100C4000A26A00E046E003EB52024FF4403393FA0D
:100C5000A3F3B3FA83F39A40104308434FF0706252
:100C600092FAA2F2E16AB2FA82F29140014310488C
:100C700001600120C8F86000FFF7F0FB0446286817
:100C800010F0007F26D1FFF7E9FB001B642802D992
:100C90000320BDE8F88F286810F0007FF3D019E03A
:100CA0000838024000380240023802400000474243
:100CB00004380240800E47427438024040380240F7
:100CC000007000407038024007E0FFE7286810F02D
:100CD000007F8AD10020BDE8F88F0120BDE8F88FA1
:100CE0004FF0E021042804D0086920F004000861D6
:100CF0007047086940F004000861704770470000C1
:100D0000401EB0F1807F01D3012070474FF0E021F9
:100D10004861044AF02010700020886107200861B3
:100D20000020704723ED00E010B5FFF7E7FF10BD8E
:100D30002DE9F04F87B0C2480068C14940F0040077
:100D400008600846006800F004000190084600684A
:100D500040F0200008600846006800F02000019084
:100D60000846006840F0800008600846006800F00F
:100D7000800001900846006840F0010008600846C5
:100D8000006800F0010001900846006840F0020091
:100D900008600846006800F00200019008460068FC
:100DA00040F0400008600846006800F040000190F4
:100DB0000846006840F0100008600846006800F02F
:100DC000100001900846006840F0080008600846DE
:100DD000006800F0080001904FF63F0002900225E5
:100DE000039500240494032605960C270697DFF844
:100DF000548202A94046FFF713FA4FF46070029044
:100E00000395049405940520069002A94046FFF737
:100E100007FA680202900395049405944FF00E09B6
:100E2000CDF8189002A94046FFF7FAF94FF00108F3
:100E3000CDF80880039504940596069702A9824888
:100E4000FFF7EEF916200290CDF80C80049405947B
:100E500002A97D48FFF7E4F948F207000290DFF8A5
:100E6000ECA1CDF80CA0049402A97948FFF7D8F9B9
:100E700041F658000290039504940594CDF818901B
:100E800002A97348FFF7CCF980200290CDF80C80BE
:100E90000494059402A96E48FFF7C2F9202002903D
:100EA000CDF80CA0049402A96748FFF7B9F902969F
:100EB0000395049405944FF0090BCDF818B002A9DE
:100EC0006448FFF7ADF94FF0040ACDF808A0039489
:100ED000049402A95F48FFF7A3F948F23310029087
:100EE000039504940596069702A95B48FFF798F9C5
:100EF0004FF683700290039504940596069702A915
:100F00005648FFF78DF94FF47060029003950494F2
:100F10000594CDF8189002A94E48FFF781F94FF4D7
:100F200050400290039504940594069702A94948FD
:100F3000FFF776F9280302900394049402A9454828
:100F4000FFF76EF94CF20370029003950494059636
:100F5000069702A94248FFF763F9A802029003949A
:100F6000049402A93E48FFF75BF930030290CDF8E4
:100F70000C800494059402A93948FFF751F94FF405
:100F80000C600290039504940594CDF8189002A982
:100F90003148FFF745F94FF49860029003950494A7
:100FA0000594CDF8189002A92748FFF739F92802CF
:100FB000029012200390CDF810800594CDF818A06F
:100FC00002A92148FFF72CF9E801029012200390B2
:100FD000CDF810800594CDF818A002A91C48FFF7A1
:100FE0001FF948200290039504940594CDF81890B9
:100FF00002A91B48FFF714F94FF4A0500290039583
:1010000004940594CDF818B002A91348FFF708F925
:1010100070030290CDF80C800494059402A90E4848
:10102000FFF7FEF86020029003950494059606975A
:1010300002A90848FFF7F4F807B0BDE8F08F0000F8
:101040003038024000140240000802400000121034
:10105000000002400004024000180240001002405C
:10106000000C024010B5FFF7FFF9BDE81040FFF794
:101070005BBE000010B592B02148016841F080517C
:101080000160006800F0805000901E48016841F443
:1010900040410160006800F440400090012006904B
:1010A000079002240C9480050D9008200E904FF4B8
:1010B000A8700F9010940720119006A8FFF7F8FB76
:1010C0000D2001900294002003904FF4A050049052
:1010D000E0020590052101A8FFF74AFAFFF788FB17
:1010E0004FF47A71B0FBF1F0FFF70AFE0420FFF72E
:1010F000F7FD00221146501EFFF7F4F912B010BDA3
:10110000403802400070004010B51148016841F4B9
:10111000700101600F48016841F0010101600E4A51
:1011200000211160026822F4102222F08072026015
:10113000031D0A4A1A60026822F4802202600848ED
:10114000016000F011F807494FF00050086010BD31
:1011500088ED00E0003802400838024010300024DA
:101160000C38024008ED00E081B000204FF6FF711E
:10117000634A136843F4FC7313601268614BCC221A
:101180001A601B1D604A1A60614B604A1A60614B0D
:101190001A601A1F10601A1D1060604B5E4A1A62B6
:1011A0004FF0CC325A62DFF878C1C3F800C0C3F800
:1011B00008C05860D8605B4B1A601B1D1A604FEA6C
:1011C0003C63DFF864C1CCF80030DFF860C1CCF8D4
:1011D0000030ACF1040318600CF104031860544BA8
:1011E0001A601B1D1A60DFF84CC14FF0AA33CCF80F
:1011F0000030DFF844C1CCF80030ACF104031860D3
:101200000CF104031860DFF838C14C4BCCF8003007
:101210000CF104031A60DFF830C14A4BCCF80030FF
:10122000DFF828C1CCF80030ACF1040318600CF1F1
:1012300004031860464B1A624FF44C625A62454AE6
:101240001A609A605860D8604348026842F0010210
:101250000260006800F0010000904FF0204241F66B
:10126000E410C2F840013D48C2F848011120C2F81C
:101270005001D2F8580100F0200003E0D2F85801E4
:1012800000F0200008B1491EF8D20021491CB1F538
:101290007A7FFBD31221C2F850114FF6FF7103E0A1
:1012A000D2F8580100F0200008B1491EF8D273218D
:1012B000C2F850114FF6FF7103E0D2F8580100F068
:1012C000200008B1491EF8D22549C2F850114FF646
:1012D000FF7103E0D2F8580100F0200008B1491E68
:1012E000F8D2D2F8540140F49F60C2F85401D2F809
:1012F000400120F40070C2F8400101B070470000C6
:1013000030380240200C0240CC0C00CC0A002AA04D
:10131000000C0240080C0240CC0000C0001002404B
:101320000A80AAAA201402400014024008140240B5
:1013300020180240001802400818024000CCC000EB
:10134000201C0240A008AAAA001C0240081C02405F
:1013500000200240AAAA2800383802405153110147
:101360001460040002E008C8121F08C1002AFAD164
:1013700070477047002001E001C1121F002AFBD115
:1013800070470000FFF778F8FFF774FEFFF7D0FC16
:10139000114D124C01212846FFF74EF801280CD0C0
:1013A00000224FF400512046FFF751F800224FF47D
:1013B00080412046FFF74BF8ECE70122510320461D
:1013C000FFF745F84FF480412046FFF73CF84FF413
:1013D0009670FEF719FFDDE700000240001802409A
:1013E00000000000010203040102030406070809CB
:1013F00010140020000001200800000064130020E9
:1014000018140020080001200004000074130020BC
:081410000024F40000000000BC
:04000005200001AD29
:00000001FF
