:020000042000DA
:10000000A0040120C1010020C9010020CB01002073
:10001000CD010020CF010020D10100200000000010
:10002000000000000000000000000000D3010020DC
:10003000D501002000000000D7010020B1110020F0
:10004000DB010020DB010020DB010020DB010020C0
:10005000DB010020DB010020DB010020DB010020B0
:10006000DB010020DB010020DB010020DB010020A0
:10007000DB010020DB010020DB010020DB01002090
:10008000DB010020DB010020DB010020DB01002080
:10009000DB010020DB010020DB010020DB01002070
:1000A000DB010020DB010020DB010020DB01002060
:1000B000DB010020DB010020DB010020DB01002050
:1000C000DB010020DB010020DB010020DB01002040
:1000D000DB01002049160020DB010020DB010020AD
:1000E000DB010020DB010020DB010020DB01002020
:1000F000DB010020DB010020DB010020DB01002010
:10010000DB010020DB010020DB010020DB010020FF
:10011000DB010020B1120020DB010020DB01002008
:10012000DB010020DB010020DB010020DB010020DF
:10013000DB010020DB010020DB010020DB010020CF
:10014000DB010020DB010020DB010020DB010020BF
:10015000DB010020DB010020DB010020DB010020AF
:10016000DB010020DB010020DB010020DB0100209F
:10017000DB010020DB010020DB010020000000008B
:10018000DB010020DB010020DB010020DB0100207F
:10019000DB010020DB010020DB010020DB0100206F
:1001A000DB010020DB010020DB010020DFF80CD0A8
:1001B00000F018F8004800478D160020A004012028
:1001C0000648804706480047FEE7FEE7FEE7FEE7F1
:1001D000FEE7FEE7FEE7FEE7FEE7FEE75912002036
:1001E000AD010020064C074D06E0E06840F0010339
:1001F00094E8070098471034AC42F6D3FFF7DAFFD3
:10020000E81600200817002031B500F015F9044663
:1002100000F012F90099001B8842F9D338BD0000A4
:100220002DE9F84F0022DFF80492DFF8FC814FF04F
:10023000010E0F2709F1040A0EFA02F50B682B4094
:10024000AB427CD1D1F804C0BCF1020F02D0BCF1AA
:10025000120F14D14FEAD20C00EB8C04266A4FEA3D
:10026000427C4FEADC6C07FA0CFB26EA0B06D1F85D
:1002700010B00BFA0CFC4CEA060CC4F820C006685F
:100280004FEA420C032404FA0CF4A64391F804B09C
:100290000BF0030B0BFA0CFB4BEA060606604E68EC
:1002A000012E05D0022E03D0112E01D0122E11D115
:1002B0008668A643D1F80CB00BFA0CFB4BEA060695
:1002C0008660466826EA05050E79C6F30016964054
:1002D00035434560C56825EA04048D6805FA0CFCC1
:1002E0004CEA040CC0F80CC0D1F804C01CF0805FCC
:1002F00075D0D8F800C04CF4804CC8F800C0D8F8CD
:1003000000C00CF4804CCDF800C022F0030C0CF1BE
:10031000804505F59835D5F808C89407240F07FAE5
:1003200004F62CEA0606A0F1804CBCF5003C5CD03B
:10033000BCF5806C5CD0BCF5806C5CD000E04EE01D
:10034000BCF5806C5AD0BCF5806C5AD0BCF5806C82
:100350005AD0BCF5806C5AD0BCF5806C5AD0BCF534
:10036000806C5AD0BCF5806C5AD04FF00A0C0CFA55
:1003700004FC4CEA060CC5F808C8D9F800C02CEA01
:10038000030C4C6814F4803F01D04CEA030CC9F80C
:1003900000C0DAF800C02CEA030C4C6814F4003FEB
:1003A00001D04CEA030CCAF800C0214CD4F800C0BC
:1003B0002CEA030C4D6815F4801F01D04CEA030CA5
:1003C000C4F800C01B4CD4F800C02CEA030C4D68E4
:1003D00015F4001F01D04CEA030CC4F800C0521CF5
:1003E000102AFFF429AFBDE8F88F4FF0000CBEE7EC
:1003F0004FF0010CBBE74FF0020CB8E74FF0030CD5
:10040000B5E74FF0040CB2E74FF0050CAFE74FF043
:10041000060CACE74FF0070CA9E74FF0080CA6E775
:100420004FF0090CA3E7000044380240003C0140B3
:10043000083C01400C3C0140014800687047000046
:100440001C00012002480168491C0160704700003F
:100450001C00012010B50B48016841F400710160D7
:10046000016841F480610160016841F480710160BC
:10047000032000F065F8002000F006F800F015F801
:10048000002010BD003C024010B5044600F0FAF90F
:100490004FF47A72B0FBF2F000F0A8FC0022214683
:1004A000501E00F019F8002010BD10B5032000F018
:1004B00047F80022BDE810401146501E00F00CB86D
:1004C00000F01F01012202FA01F14009800000F151
:1004D000E020C0F80011704710B4184B1B68C3F33C
:1004E0000223C3F1070CBCF1040F01D94FF0040C37
:1004F0001C1D072C01D2002300E0DB1E012404FA9E
:100500000CFCACF1010C0CEA0101994004FA03F374
:100510005B1E1A401143002808DA00F00F0000F1BA
:10052000E020090180F8141D10BC704700F1E020A4
:10053000090180F8001410BC704700000CED00E0C9
:1005400000F00700064A11684FF6FF03194041EA20
:10055000002040F0FD7040F08060106070470000A7
:100560000CED00E0F8B52548016841F080510160CC
:10057000006800F0805000900126300490FAA0F04E
:10058000B0FA80F0800000F1844000F56020066041
:10059000FFF752FF05461A4C606810F4803F0BD1FC
:1005A000FFF74AFF401BB0F57A7F01D90320F8BD61
:1005B000606810F4803FF3D04FF4003090FAA0F060
:1005C000B0FA80F0800000F1844000F56020066001
:1005D000FFF732FF0546606810F4003F0BD1FFF7CC
:1005E0002BFF401BB0F57A7F01D90320F8BD60686E
:1005F00010F4003FF3D00020F8BD00004038024066
:10060000007000402DE9F04704460E46DFF868A26E
:10061000DAF80000994900F00F00994F06F0FF0941
:1006200041F28838B04270D28AF80090DAF80000BF
:1006300000F00F00B04202D00120BDE8F087207822
:1006400010F0020F05D03868A26820F0F0001043C7
:100650003860207810F0010F49D06068012808D078
:1006600002280DD003280BD0096811F0020F29D001
:100670000AE0096811F4003F06D10120BDE8F087C7
:10068000096811F0007F1AD0396821F0030108438E
:100690003860FFF7D1FE05466068012815D00228B2
:1006A00026D003283BD0386810F00C0F1FD0FFF77E
:1006B000C3FE401B404539D90320BDE8F087012027
:1006C000BDE8F0870120BDE8F087386800F00C0035
:1006D00004280CD0FFF7B0FE401B404502D9032090
:1006E000BDE8F087386800F00C000428F2D1A8E0DB
:1006F000386800F00C00082870D0FFF79DFE401B02
:10070000404503D90320BDE8F08714E0386800F0C5
:100710000C000828F1D194E00320BDE8F087386888
:10072000FFF78AFE401B4045F9D9F5E7386810F01D
:100730000C0FBCD185E0207810F0020F05D038688E
:10074000A26820F0F00010433860207810F0010F0C
:100750006CD06068012808D002280DD003280BD087
:10076000096811F0020F29D00AE0096811F4003F6E
:1007700006D10120BDE8F087096811F0007F1AD08A
:10078000396821F0030108433860FFF755FE05463C
:100790006068012815D0022827D003283BD038688C
:1007A00010F00C0F42D0FFF747FE401B404539D9EF
:1007B0000320BDE8F0870120BDE8F0870120BDE8F7
:1007C000F087386800F00C0004282FD0FFF734FEC3
:1007D000401B404503D90320BDE8F08731E038686D
:1007E00000F00C000428F1D120E0386800F00C0083
:1007F00008281BD0FFF720FE401B404502D90320EC
:10080000BDE8F087386800F00C000828F2D10DE050
:100810000320BDE8F0873868FFF70EFE401B404517
:10082000F9D9F5E7386810F00C0FBCD18AF80090C0
:10083000DAF8000000F00F00B04202D00120BDE85D
:10084000F087207810F0040F05D03868E16820F4B4
:10085000E05008433860207810F0080F06D0386860
:10086000216920F4604040EAC10038600020FFF7B1
:100870000BFE0020BDE8F087003C0240003802403B
:100880000838024010B500F043F808490968F02222
:1008900092FAA2F201F0F001B2FA82F2D140044AD7
:1008A000515CC8400349086010BD00000838024090
:1008B000D81600201800012010B5FFF7E3FF074904
:1008C00009684FF4E05292FAA2F201F4E051B2FA50
:1008D00082F2D140024A515CC84010BD0838024043
:1008E000D816002010B5FFF7CDFF074909684FF46F
:1008F000604292FAA2F201F46041B2FA82F2D1406F
:10090000024A515CC84010BD08380240D816002089
:1009100010B41F48006810F00C011E481BD04FEAAD
:10092000600C042916D0082915D11B4A116801F062
:100930003F01136813F4800F47F6C0730DD0BCFB62
:10094000F1F01168194093FAA3F3B3FA83F3D94095
:1009500048430CE0604610BC7047B0FBF1F01168F2
:10096000194093FAA3F3B3FA83F3D94048431168CB
:100970004FF4403292FAA2F201F44031B2FA82F21C
:10098000D140491C4900B0FBF1F010BC7047000099
:10099000083802400024F400043802402DE9F84FE2
:1009A0000446DFF8E8B32078F94D10F0010F4FF05E
:1009B000000741F2883660D0DBF8000000F00C0040
:1009C00004280AD0DBF8000000F00C0008280DD144
:1009D000281D006810F4800F08D0286810F4003F2C
:1009E0004BD0606878BB0120BDE8F88FDFF8A49396
:1009F00089F80070FFF720FD8046286810F4003F5A
:100A00000CD0FFF719FDA0EB0800B04202D903207B
:100A1000BDE8F88F286810F4003FF2D1207989F8FA
:100A200000006068A8B1FFF707FD8046286810F451
:100A3000003F22D1FFF700FDA0EB0800B04203D930
:100A40000320BDE8F88F18E0286810F4003FF1D0CB
:100A500013E0FFF7F1FC8046286810F4003F0CD04B
:100A6000FFF7EAFCA0EB0800B04202D90320BDE882
:100A7000F88F286810F4003FF2D12078DFF818834F
:100A800010F0020F64D0DBF800004FF0F80A10F00D
:100A90000C0F17D0DBF8000000F00C00082804D180
:100AA000BE48006810F4800F0CD0E068C8B3012085
:100AB000C8F80000FFF7C0FC8146286810F0020F5C
:100AC00016D022E0286810F0020F05D0E068012857
:100AD00002D00120BDE8F88F28689AFAAAF22169AD
:100AE000B2FA82F220F0F8009140084328602FE02B
:100AF000FFF7A2FCA0EB0900642802D90320BDE89F
:100B0000F88F286810F0020FF2D028689AFAAAF23B
:100B10002169B2FA82F220F0F8009140084328607F
:100B200016E0FFE7C8F80070FFF786FC81462868EA
:100B300010F0020F0CD0FFF77FFCA0EB0900642837
:100B400002D90320BDE8F88F286810F0020FF2D117
:100B5000207810F0080F34D09148DFF848A261697E
:100B6000C1B101210160FFF767FC8146DAF800009E
:100B700010F0020F25D1FFF75FFCA0EB09006428FD
:100B800002D90320BDE8F88FDAF8000010F0020F58
:100B9000F1D016E00760FFF74FFC8146DAF800005D
:100BA00010F0020F0DD0FFF747FCA0EB09006428FE
:100BB00002D90320BDE8F88FDAF8000010F0020F28
:100BC000F1D1207810F0040F72D07748016841F01D
:100BD00080510160006800F080500090DFF8CCA1E7
:100BE000DAF8000040F48070CAF80000FFF724FC37
:100BF0008146DAF8000010F4807F0DD1FFF71CFC6D
:100C0000A0EB0900642802D90320BDE8F88FDAF8C8
:100C1000000010F4807FF1D0DFF894A18AF8007012
:100C2000FFF70AFC8146DAF8000010F0020F0DD041
:100C3000FFF702FCA0EB0900B04202D90320BDE897
:100C4000F88FDAF8000010F0020FF1D1207A8AF85C
:100C50000000A068B0B1FFF7EFFB8146DAF80000B2
:100C600010F0020F24D1FFF7E7FBA0EB0900B04220
:100C700002D90320BDE8F88FDAF8000010F0020F67
:100C8000F1D015E0FFF7D8FB8146DAF8000010F04C
:100C9000020F0DD0FFF7D0FBA0EB0900B04202D944
:100CA0000320BDE8F88FDAF8000010F0020FF1D150
:100CB000A069E8B3DBF8001001F00C01082979D035
:100CC000022810D0C8F86070FFF7B6FB0446286809
:100CD00010F0007F74D0FFF7AFFB001B64286BD9C6
:100CE0000320BDE8F88FC8F86070FFF7A5FB064643
:100CF000286810F0007F0BD0FFF79EFB801B642854
:100D000002D90320BDE8F88F286810F0007FF3D1E6
:100D1000216AE069626A014347F6C07090FAA0F068
:100D2000B0FA80F002FA00F04FF0FF33A26A00E060
:100D300046E003EB52024FF4403393FAA3F3B3FAC5
:100D400083F39A40104308434FF0706292FAA2F284
:100D5000E16AB2FA82F29140014310480160012039
:100D6000C8F86000FFF768FB0446286810F0007FB1
:100D700026D1FFF761FB001B642802D90320BDE8E0
:100D8000F88F286810F0007FF3D019E0083802408F
:100D90000038024002380240000047420438024056
:100DA000800E4742743802404038024000700040D4
:100DB0007038024007E0FFE7286810F0007F8AD112
:100DC0000020BDE8F88F0120BDE8F88F4FF0E0214A
:100DD000042804D0086920F00400086170470869FD
:100DE00040F004000861704770470000401EB0F1F9
:100DF000807F01D3012070474FF0E0214861044A11
:100E0000F0201070002088610720086100207047E2
:100E100023ED00E010B5FFF7E7FF10BD704738B5D0
:100E200004462168086800F00100CA6802F4807274
:100E3000002807D032B1086848680090E06B40F0A5
:100E40000100E0630868C0F340004A6902F0010253
:100E500038B132B1086848680090E06B40F0040097
:100E6000E0630868C0F38002486900F001003AB10D
:100E700030B1086848680090E06B40F00200E06321
:100E80000868C0F3C0004A6902F0010238B132B10B
:100E9000086848680090E06B40F00800E06308686C
:100EA000C0F34010C96801F0200118B111B120460B
:100EB00000F02FFA20680168C1F3C011C06800F08B
:100EC000800019B110B1204600F088FB206801684D
:100ED000C1F38011C06800F0400019B110B1204684
:100EE00000F0F8F9E06B002805D0012084F8390003
:100EF0002046FFF793FF38BD70B50446002C04D0A0
:100F000094F83900002510B106E0012070BD84F886
:100F10003850204600F020F8022084F8390020687C
:100F2000C16821F40051C160204600F04BFA2068EE
:100F3000016921F4904101612068416921F02A0191
:100F400041612068C16841F40051C160E56301203E
:100F500084F83900002070BDF0B587B00068022623
:100F600001250324A0F18041B1F5A04120D0B1F5C5
:100F700040411BD12348016841F010010160006825
:100F800000F0100001906002029003960495059411
:100F90000720069002A91C48FFF742F900221146DB
:100FA0002520FFF799FA2520FFF78AFA07B0F0BD50
:100FB0001648016841F480110160006800F4801057
:100FC00001904FF4805002900396049505940827F1
:100FD000069702A90E48FFF723F904200290039612
:100FE00004950594069702A90A48FFF719F900220B
:100FF00011463520FFF770FA3520FFF761FA07B088
:10100000F0BD000044380240000002404038024079
:1010100000080240000C024090F83930012B03D048
:10102000122B01D00220704731B32AB390F8383028
:10103000012B23D0012380F8383081628285C2855C
:101040000022C26390F83910122919D0222180F8A9
:1010500039100168CB6843F48073CB6001684B6939
:1010600043F001034B6180F838200068C16841F00B
:101070002001C160002070470120704702207047A6
:10108000322180F83910E4E7704790F83930012BAD
:1010900003D0222B01D00220704731B32AB390F83D
:1010A0003830012B23D0012380F83830016282844C
:1010B000C2840022C26390F83910222919D012216B
:1010C00080F839100168CB6843F48073CB60016805
:1010D0004B6943F001034B6180F838200068C16818
:1010E00041F08001C160002070470120704702205C
:1010F0007047322180F83910E4E7704781B0114819
:10110000016841F080010160016801F080010091F7
:10111000016841F001010160016801F001010091E5
:10112000016841F004010160016801F004010091CF
:10113000016841F008010160006800F008000090BB
:1011400001B07047303802400A48094901600A4935
:1011500041604FF4805181600021C1604FF4806292
:1011600002610C2242618161C161FFF7C5BE0000CE
:101170000050004020000120A08601000A480949D3
:1011800001600A4941604FF4805181600021C160D3
:101190004FF4806202610C2242618161C161FFF7FC
:1011A000ABBE00000010014060000120A0860100DD
:1011B00010B5FFF747F9BDE81040FFF72BBE000060
:1011C00010B592B02248016841F08051016000687A
:1011D00000F0805000901F48016841F440410160D8
:1011E000006800F44040009001200690079002241F
:1011F0000C9480050D9008200E904FF4B4700F9061
:1012000010940420119006A8FFF7C8FBFFF7AAF975
:101210000D2001900294002003904FF4A050049000
:10122000E0020590052101A8FFF7ECF9FFF72AFB82
:101230004FF47A71B0FBF1F0FFF7D8FD0420FFF70F
:10124000C5FD00221146501EFFF746F912B010BD31
:1012500040380240007000400F48016841F47001BE
:1012600001600E48016841F0010101600C4A002153
:101270001160026822F4102222F080720260031DC5
:10128000084A1A60026822F480220260064801605F
:101290000649D8060860704788ED00E00038024033
:1012A00008380240103000240C38024008ED00E0FD
:1012B00010B50548FFF7B3FD052204490248FFF7C2
:1012C000ABFE0349087010BD200001201100012071
:1012D0001600012010B50168CA6822F04002CA60F9
:1012E00090F83910322910D00168CA6822F480724F
:1012F000CA6001684A6922F001024A61012180F84E
:101300003910FFF7FAFE002010BD222180F83910B5
:10131000F7E710B590F83910222903D0322901D00F
:10132000022010BD8168B1F5805F11D0016919B349
:101330000168496801F07F02816A4B1C83620A7070
:10134000C18D491E0904090CC1851CD0002010BDA7
:10135000816A02693AB102685268D2B20A80816A2F
:10136000491C8162ECE702685268C2F308020A80F5
:10137000816A891C8162E3E701684A68816A4B1CC3
:1013800083620A70DCE70168CA6822F02002CA6042
:1013900090F83910322910D00168CA6822F480729E
:1013A000CA6001684A6922F001024A61012180F89D
:1013B0003910FFF769FE002010BD122180F83910A6
:1013C000F7E700002DE9F04104462068016921F4A7
:1013D0004051E268114301612068C16821F4037142
:1013E00021F414412369A268D4F81CC01A4363692C
:1013F00043EA0C031A431143C1602068416921F498
:101400004071A26911434161E069714A7149724DAD
:101410003226B0F5004F38D02068884201D0904283
:101420007ED1FFF75FFA00EBC00101EB00106168AD
:101430008900B0FBF1F0A5FB00104709FFF752FA55
:1014400000EBC00101EB001061688900B0FBF1F80E
:10145000FFF748FA00EBC00101EB0010616889005A
:10146000B0FBF1F0A5FB001040096FF018014843F4
:1014700008EB800006EB0010A5FB00102168400976
:1014800067F31F108860BDE8F0812068884201D0B2
:10149000904233D1FFF726FA00EBC00101EB0010B8
:1014A00061684900B0FBF1F0A5FB00104709FFF7A8
:1014B00019FA00EBC00101EB001061684900B0FBB4
:1014C000F1F8FFF70FFA00EBC00101EB00106168C3
:1014D0004900B0FBF1F0A5FB001040096FF01801C6
:1014E000484308EB800006EB0010A5FB00102168C4
:1014F000400967F31F108860BDE8F081FFF7DCF951
:1015000000EBC00101EB001061684900B0FBF1F095
:10151000A5FB00104709FFF7CFF900EBC00100E081
:1015200022E001EB001061684900B0FBF1F8FFF721
:10153000C3F900EBC00101EB001061684900B0FB8A
:10154000F1F0A5FB001040096FF01801484308EBCB
:10155000800006EB0010A5FB00102168400967F32E
:101560001F108860BDE8F081FFF7A6F900EBC0010D
:1015700001EB001061688900B0FBF1F0A5FB0010E1
:101580004709FFF799F900EBC00101EB0010616812
:101590008900B0FBF1F8FFF78FF900EBC00101EB18
:1015A000001061688900B0FBF1F0A5FB0010400954
:1015B0006FF01801484308EB800006EB0010A5FB14
:1015C00000102168400967F31F108860BDE8F081B2
:1015D00000140140001001401F85EB5190F83910B4
:1015E000122903D0322901D0022070478168B1F559
:1015F000805F0CD0016A4A1C02620268097851605F
:10160000C18C491E0904090CC18410D019E0016A7B
:1016100002680988C1F308015160016919B1016AC2
:10162000491C0162ECE7016A891C0162E8E7016874
:10163000CA6822F08002CA600068C16841F04001B7
:10164000C16000207047000010B50548FFF7E7FBB8
:10165000052204490248FFF7DFFC0349087010BD6A
:10166000600001200C0001201600012002E008C8E3
:10167000121F08C1002AFAD170477047002001E00C
:1016800001C1121F002AFBD170470000FEF7E2FEE5
:10169000FFF796FDFFF732FDFFF756FDFFF76EFDF2
:1016A000084C052208490948FFF7EFFC2070052285
:1016B00007490848FFF7E9FC60700520FEF7A4FD24
:1016C000EFE700000000012002000120600001207F
:1016D0000700012020000120000000000102030497
:1016E0000102030406070809081700200000012072
:1016F000200000006C160020281700202000012088
:10170000800400007C1600200000061626364609DC
:101710001929394900000000000000000000000005
:081720000024F40000000000A9
:04000005200001AD29
:00000001FF
